{
  "_format": "hh-sol-artifact-1",
  "contractName": "NftMinter",
  "sourceName": "contracts/NftMinter.sol",
  "abi": [
    {
      "inputs": [],
      "stateMutability": "nonpayable",
      "type": "constructor"
    },
    {
      "anonymous": false,
      "inputs": [
        {
          "indexed": true,
          "internalType": "address",
          "name": "owner",
          "type": "address"
        },
        {
          "indexed": true,
          "internalType": "address",
          "name": "approved",
          "type": "address"
        },
        {
          "indexed": true,
          "internalType": "uint256",
          "name": "tokenId",
          "type": "uint256"
        }
      ],
      "name": "Approval",
      "type": "event"
    },
    {
      "anonymous": false,
      "inputs": [
        {
          "indexed": true,
          "internalType": "address",
          "name": "owner",
          "type": "address"
        },
        {
          "indexed": true,
          "internalType": "address",
          "name": "operator",
          "type": "address"
        },
        {
          "indexed": false,
          "internalType": "bool",
          "name": "approved",
          "type": "bool"
        }
      ],
      "name": "ApprovalForAll",
      "type": "event"
    },
    {
      "anonymous": false,
      "inputs": [
        {
          "indexed": false,
          "internalType": "uint256",
          "name": "tokenId",
          "type": "uint256"
        },
        {
          "indexed": false,
          "internalType": "address",
          "name": "owner",
          "type": "address"
        }
      ],
      "name": "NftMinted",
      "type": "event"
    },
    {
      "anonymous": false,
      "inputs": [
        {
          "indexed": true,
          "internalType": "address",
          "name": "previousOwner",
          "type": "address"
        },
        {
          "indexed": true,
          "internalType": "address",
          "name": "newOwner",
          "type": "address"
        }
      ],
      "name": "OwnershipTransferred",
      "type": "event"
    },
    {
      "anonymous": false,
      "inputs": [
        {
          "indexed": true,
          "internalType": "address",
          "name": "from",
          "type": "address"
        },
        {
          "indexed": true,
          "internalType": "address",
          "name": "to",
          "type": "address"
        },
        {
          "indexed": true,
          "internalType": "uint256",
          "name": "tokenId",
          "type": "uint256"
        }
      ],
      "name": "Transfer",
      "type": "event"
    },
    {
      "inputs": [],
      "name": "MAX_TOKENS",
      "outputs": [
        {
          "internalType": "uint256",
          "name": "",
          "type": "uint256"
        }
      ],
      "stateMutability": "view",
      "type": "function"
    },
    {
      "inputs": [
        {
          "internalType": "address[]",
          "name": "addresses",
          "type": "address[]"
        }
      ],
      "name": "addToPresaleList",
      "outputs": [],
      "stateMutability": "nonpayable",
      "type": "function"
    },
    {
      "inputs": [
        {
          "internalType": "address",
          "name": "to",
          "type": "address"
        },
        {
          "internalType": "uint256",
          "name": "tokenId",
          "type": "uint256"
        }
      ],
      "name": "approve",
      "outputs": [],
      "stateMutability": "nonpayable",
      "type": "function"
    },
    {
      "inputs": [
        {
          "internalType": "address",
          "name": "owner",
          "type": "address"
        }
      ],
      "name": "balanceOf",
      "outputs": [
        {
          "internalType": "uint256",
          "name": "",
          "type": "uint256"
        }
      ],
      "stateMutability": "view",
      "type": "function"
    },
    {
      "inputs": [],
      "name": "baseURI",
      "outputs": [
        {
          "internalType": "string",
          "name": "",
          "type": "string"
        }
      ],
      "stateMutability": "view",
      "type": "function"
    },
    {
      "inputs": [],
      "name": "devReserve",
      "outputs": [
        {
          "internalType": "uint256",
          "name": "",
          "type": "uint256"
        }
      ],
      "stateMutability": "view",
      "type": "function"
    },
    {
      "inputs": [
        {
          "internalType": "uint256",
          "name": "tokenId",
          "type": "uint256"
        }
      ],
      "name": "getApproved",
      "outputs": [
        {
          "internalType": "address",
          "name": "",
          "type": "address"
        }
      ],
      "stateMutability": "view",
      "type": "function"
    },
    {
      "inputs": [
        {
          "internalType": "address",
          "name": "owner",
          "type": "address"
        },
        {
          "internalType": "address",
          "name": "operator",
          "type": "address"
        }
      ],
      "name": "isApprovedForAll",
      "outputs": [
        {
          "internalType": "bool",
          "name": "",
          "type": "bool"
        }
      ],
      "stateMutability": "view",
      "type": "function"
    },
    {
      "inputs": [],
      "name": "isRevealed",
      "outputs": [
        {
          "internalType": "bool",
          "name": "",
          "type": "bool"
        }
      ],
      "stateMutability": "view",
      "type": "function"
    },
    {
      "inputs": [],
      "name": "maxTokenPurchase",
      "outputs": [
        {
          "internalType": "uint256",
          "name": "",
          "type": "uint256"
        }
      ],
      "stateMutability": "view",
      "type": "function"
    },
    {
      "inputs": [
        {
          "internalType": "uint256",
          "name": "numberOfTokens",
          "type": "uint256"
        }
      ],
      "name": "mintNFT",
      "outputs": [],
      "stateMutability": "payable",
      "type": "function"
    },
    {
      "inputs": [],
      "name": "name",
      "outputs": [
        {
          "internalType": "string",
          "name": "",
          "type": "string"
        }
      ],
      "stateMutability": "view",
      "type": "function"
    },
    {
      "inputs": [
        {
          "internalType": "address",
          "name": "addr",
          "type": "address"
        }
      ],
      "name": "onPreSaleList",
      "outputs": [
        {
          "internalType": "bool",
          "name": "",
          "type": "bool"
        }
      ],
      "stateMutability": "view",
      "type": "function"
    },
    {
      "inputs": [],
      "name": "owner",
      "outputs": [
        {
          "internalType": "address",
          "name": "",
          "type": "address"
        }
      ],
      "stateMutability": "view",
      "type": "function"
    },
    {
      "inputs": [
        {
          "internalType": "uint256",
          "name": "tokenId",
          "type": "uint256"
        }
      ],
      "name": "ownerOf",
      "outputs": [
        {
          "internalType": "address",
          "name": "",
          "type": "address"
        }
      ],
      "stateMutability": "view",
      "type": "function"
    },
    {
      "inputs": [],
      "name": "presaleIsActive",
      "outputs": [
        {
          "internalType": "bool",
          "name": "",
          "type": "bool"
        }
      ],
      "stateMutability": "view",
      "type": "function"
    },
    {
      "inputs": [],
      "name": "presaleMaxMint",
      "outputs": [
        {
          "internalType": "uint256",
          "name": "",
          "type": "uint256"
        }
      ],
      "stateMutability": "view",
      "type": "function"
    },
    {
      "inputs": [
        {
          "internalType": "uint256",
          "name": "numberOfTokens",
          "type": "uint256"
        }
      ],
      "name": "presaleNFT",
      "outputs": [],
      "stateMutability": "payable",
      "type": "function"
    },
    {
      "inputs": [
        {
          "internalType": "address[]",
          "name": "addresses",
          "type": "address[]"
        }
      ],
      "name": "removeFromPresaleList",
      "outputs": [],
      "stateMutability": "nonpayable",
      "type": "function"
    },
    {
      "inputs": [],
      "name": "renounceOwnership",
      "outputs": [],
      "stateMutability": "nonpayable",
      "type": "function"
    },
    {
      "inputs": [],
      "name": "reveal",
      "outputs": [],
      "stateMutability": "nonpayable",
      "type": "function"
    },
    {
      "inputs": [
        {
          "internalType": "address",
          "name": "from",
          "type": "address"
        },
        {
          "internalType": "address",
          "name": "to",
          "type": "address"
        },
        {
          "internalType": "uint256",
          "name": "tokenId",
          "type": "uint256"
        }
      ],
      "name": "safeTransferFrom",
      "outputs": [],
      "stateMutability": "nonpayable",
      "type": "function"
    },
    {
      "inputs": [
        {
          "internalType": "address",
          "name": "from",
          "type": "address"
        },
        {
          "internalType": "address",
          "name": "to",
          "type": "address"
        },
        {
          "internalType": "uint256",
          "name": "tokenId",
          "type": "uint256"
        },
        {
          "internalType": "bytes",
          "name": "data",
          "type": "bytes"
        }
      ],
      "name": "safeTransferFrom",
      "outputs": [],
      "stateMutability": "nonpayable",
      "type": "function"
    },
    {
      "inputs": [],
      "name": "saleIsActive",
      "outputs": [
        {
          "internalType": "bool",
          "name": "",
          "type": "bool"
        }
      ],
      "stateMutability": "view",
      "type": "function"
    },
    {
      "inputs": [
        {
          "internalType": "address",
          "name": "operator",
          "type": "address"
        },
        {
          "internalType": "bool",
          "name": "approved",
          "type": "bool"
        }
      ],
      "name": "setApprovalForAll",
      "outputs": [],
      "stateMutability": "nonpayable",
      "type": "function"
    },
    {
      "inputs": [
        {
          "internalType": "string",
          "name": "_newBaseURI",
          "type": "string"
        }
      ],
      "name": "setBaseURI",
      "outputs": [],
      "stateMutability": "nonpayable",
      "type": "function"
    },
    {
      "inputs": [
        {
          "internalType": "uint256",
          "name": "maxMint",
          "type": "uint256"
        }
      ],
      "name": "setPresaleMaxMint",
      "outputs": [],
      "stateMutability": "nonpayable",
      "type": "function"
    },
    {
      "inputs": [
        {
          "internalType": "bytes4",
          "name": "interfaceId",
          "type": "bytes4"
        }
      ],
      "name": "supportsInterface",
      "outputs": [
        {
          "internalType": "bool",
          "name": "",
          "type": "bool"
        }
      ],
      "stateMutability": "view",
      "type": "function"
    },
    {
      "inputs": [],
      "name": "symbol",
      "outputs": [
        {
          "internalType": "string",
          "name": "",
          "type": "string"
        }
      ],
      "stateMutability": "view",
      "type": "function"
    },
    {
      "inputs": [],
      "name": "togglePresaleState",
      "outputs": [],
      "stateMutability": "nonpayable",
      "type": "function"
    },
    {
      "inputs": [],
      "name": "toggleSaleState",
      "outputs": [],
      "stateMutability": "nonpayable",
      "type": "function"
    },
    {
      "inputs": [
        {
          "internalType": "uint256",
          "name": "index",
          "type": "uint256"
        }
      ],
      "name": "tokenByIndex",
      "outputs": [
        {
          "internalType": "uint256",
          "name": "",
          "type": "uint256"
        }
      ],
      "stateMutability": "view",
      "type": "function"
    },
    {
      "inputs": [
        {
          "internalType": "address",
          "name": "owner",
          "type": "address"
        },
        {
          "internalType": "uint256",
          "name": "index",
          "type": "uint256"
        }
      ],
      "name": "tokenOfOwnerByIndex",
      "outputs": [
        {
          "internalType": "uint256",
          "name": "",
          "type": "uint256"
        }
      ],
      "stateMutability": "view",
      "type": "function"
    },
    {
      "inputs": [],
      "name": "tokenPrice",
      "outputs": [
        {
          "internalType": "uint256",
          "name": "",
          "type": "uint256"
        }
      ],
      "stateMutability": "view",
      "type": "function"
    },
    {
      "inputs": [
        {
          "internalType": "uint256",
          "name": "tokenId",
          "type": "uint256"
        }
      ],
      "name": "tokenURI",
      "outputs": [
        {
          "internalType": "string",
          "name": "",
          "type": "string"
        }
      ],
      "stateMutability": "view",
      "type": "function"
    },
    {
      "inputs": [
        {
          "internalType": "address",
          "name": "_owner",
          "type": "address"
        }
      ],
      "name": "tokensOfOwner",
      "outputs": [
        {
          "internalType": "uint256[]",
          "name": "",
          "type": "uint256[]"
        }
      ],
      "stateMutability": "view",
      "type": "function"
    },
    {
      "inputs": [],
      "name": "totalSupply",
      "outputs": [
        {
          "internalType": "uint256",
          "name": "",
          "type": "uint256"
        }
      ],
      "stateMutability": "view",
      "type": "function"
    },
    {
      "inputs": [
        {
          "internalType": "address",
          "name": "from",
          "type": "address"
        },
        {
          "internalType": "address",
          "name": "to",
          "type": "address"
        },
        {
          "internalType": "uint256",
          "name": "tokenId",
          "type": "uint256"
        }
      ],
      "name": "transferFrom",
      "outputs": [],
      "stateMutability": "nonpayable",
      "type": "function"
    },
    {
      "inputs": [
        {
          "internalType": "address",
          "name": "newOwner",
          "type": "address"
        }
      ],
      "name": "transferOwnership",
      "outputs": [],
      "stateMutability": "nonpayable",
      "type": "function"
    },
    {
      "inputs": [],
      "name": "withdraw",
      "outputs": [],
      "stateMutability": "payable",
      "type": "function"
    }
  ],
  "bytecode": "0x608060405260405180602001604052806000815250600b90805190602001906200002b92919062000229565b506000600c60006101000a81548160ff0219169083151502179055506000600c60016101000a81548160ff0219169083151502179055506000600c60026101000a81548160ff0219169083151502179055506002600f5560406010553480156200009457600080fd5b506040518060400160405280601581526020017f416b62616e6b57656233204e4654204d696e74657200000000000000000000008152506040518060400160405280600481526020017f50544b410000000000000000000000000000000000000000000000000000000081525081600090805190602001906200011992919062000229565b5080600190805190602001906200013292919062000229565b50505062000155620001496200015b60201b60201c565b6200016360201b60201c565b6200033e565b600033905090565b6000600660009054906101000a900473ffffffffffffffffffffffffffffffffffffffff16905081600660006101000a81548173ffffffffffffffffffffffffffffffffffffffff021916908373ffffffffffffffffffffffffffffffffffffffff1602179055508173ffffffffffffffffffffffffffffffffffffffff168173ffffffffffffffffffffffffffffffffffffffff167f8be0079c531659141344cd1fd0a4f28419497f9722a3daafe3b4186f6b6457e060405160405180910390a35050565b8280546200023790620002d9565b90600052602060002090601f0160209004810192826200025b5760008555620002a7565b82601f106200027657805160ff1916838001178555620002a7565b82800160010185558215620002a7579182015b82811115620002a657825182559160200191906001019062000289565b5b509050620002b69190620002ba565b5090565b5b80821115620002d5576000816000905550600101620002bb565b5090565b60006002820490506001821680620002f257607f821691505b602082108114156200030957620003086200030f565b5b50919050565b7f4e487b7100000000000000000000000000000000000000000000000000000000600052602260045260246000fd5b614cf2806200034e6000396000f3fe60806040526004361061023b5760003560e01c80637204a3c91161012e578063b88d4fde116100ab578063eb8d24441161006f578063eb8d244414610848578063f285e69e14610873578063f2fde38b1461088a578063f47c84c5146108b3578063fcd2a427146108de5761023b565b8063b88d4fde14610765578063c87b56dd1461078e578063daaeec86146107cb578063df4305d2146107e2578063e985e9c51461080b5761023b565b8063946ef42a116100f2578063946ef42a146106a657806395d89b41146106d1578063a22cb465146106fc578063a475b5dd14610725578063b179e0601461073c5761023b565b80637204a3c9146105ce5780637ff9b596146105f75780638462151c146106225780638da5cb5b1461065f578063926427441461068a5761023b565b80633a6a85bf116101bc57806355f804b31161018057806355f804b3146104e95780636352211e146105125780636c0360eb1461054f57806370a082311461057a578063715018a6146105b75761023b565b80633a6a85bf146104325780633ccfd60b1461044e57806342842e0e146104585780634f6ccce71461048157806354214f69146104be5761023b565b806311576b791161020357806311576b791461033957806318160ddd1461037657806323b872dd146103a15780632f745c59146103ca57806330f72cd4146104075761023b565b806301ffc9a71461024057806306fdde031461027d578063081812fc146102a8578063095ea7b3146102e557806309aa3dcf1461030e575b600080fd5b34801561024c57600080fd5b5061026760048036038101906102629190613673565b610909565b6040516102749190613d25565b60405180910390f35b34801561028957600080fd5b5061029261091b565b60405161029f9190613d40565b60405180910390f35b3480156102b457600080fd5b506102cf60048036038101906102ca9190613706565b6109ad565b6040516102dc9190613c9c565b60405180910390f35b3480156102f157600080fd5b5061030c600480360381019061030791906135f2565b6109f3565b005b34801561031a57600080fd5b50610323610b0b565b60405161033091906140a2565b60405180910390f35b34801561034557600080fd5b50610360600480360381019061035b9190613487565b610b10565b60405161036d9190613d25565b60405180910390f35b34801561038257600080fd5b5061038b610b66565b60405161039891906140a2565b60405180910390f35b3480156103ad57600080fd5b506103c860048036038101906103c391906134ec565b610b73565b005b3480156103d657600080fd5b506103f160048036038101906103ec91906135f2565b610bd3565b6040516103fe91906140a2565b60405180910390f35b34801561041357600080fd5b5061041c610c78565b6040516104299190613d25565b60405180910390f35b61044c60048036038101906104479190613706565b610c8b565b005b610456610ff3565b005b34801561046457600080fd5b5061047f600480360381019061047a91906134ec565b61107b565b005b34801561048d57600080fd5b506104a860048036038101906104a39190613706565b61109b565b6040516104b591906140a2565b60405180910390f35b3480156104ca57600080fd5b506104d3611132565b6040516104e09190613d25565b60405180910390f35b3480156104f557600080fd5b50610510600480360381019061050b91906136c5565b611145565b005b34801561051e57600080fd5b5061053960048036038101906105349190613706565b611167565b6040516105469190613c9c565b60405180910390f35b34801561055b57600080fd5b50610564611219565b6040516105719190613d40565b60405180910390f35b34801561058657600080fd5b506105a1600480360381019061059c9190613487565b6112a7565b6040516105ae91906140a2565b60405180910390f35b3480156105c357600080fd5b506105cc61135f565b005b3480156105da57600080fd5b506105f560048036038101906105f0919061362e565b611373565b005b34801561060357600080fd5b5061060c611503565b60405161061991906140a2565b60405180910390f35b34801561062e57600080fd5b5061064960048036038101906106449190613487565b61150e565b6040516106569190613d03565b60405180910390f35b34801561066b57600080fd5b5061067461168a565b6040516106819190613c9c565b60405180910390f35b6106a4600480360381019061069f9190613706565b6116b4565b005b3480156106b257600080fd5b506106bb6118a2565b6040516106c891906140a2565b60405180910390f35b3480156106dd57600080fd5b506106e66118a8565b6040516106f39190613d40565b60405180910390f35b34801561070857600080fd5b50610723600480360381019061071e91906135b6565b61193a565b005b34801561073157600080fd5b5061073a611950565b005b34801561074857600080fd5b50610763600480360381019061075e919061362e565b611975565b005b34801561077157600080fd5b5061078c6004803603810190610787919061353b565b611b05565b005b34801561079a57600080fd5b506107b560048036038101906107b09190613706565b611b67565b6040516107c29190613d40565b60405180910390f35b3480156107d757600080fd5b506107e0611c4c565b005b3480156107ee57600080fd5b5061080960048036038101906108049190613706565b611c80565b005b34801561081757600080fd5b50610832600480360381019061082d91906134b0565b611c92565b60405161083f9190613d25565b60405180910390f35b34801561085457600080fd5b5061085d611d26565b60405161086a9190613d25565b60405180910390f35b34801561087f57600080fd5b50610888611d39565b005b34801561089657600080fd5b506108b160048036038101906108ac9190613487565b611d6d565b005b3480156108bf57600080fd5b506108c8611df1565b6040516108d591906140a2565b60405180910390f35b3480156108ea57600080fd5b506108f3611df6565b60405161090091906140a2565b60405180910390f35b600061091482611dfc565b9050919050565b60606000805461092a906143bf565b80601f0160208091040260200160405190810160405280929190818152602001828054610956906143bf565b80156109a35780601f10610978576101008083540402835291602001916109a3565b820191906000526020600020905b81548152906001019060200180831161098657829003601f168201915b5050505050905090565b60006109b882611e76565b6004600083815260200190815260200160002060009054906101000a900473ffffffffffffffffffffffffffffffffffffffff169050919050565b60006109fe82611167565b90508073ffffffffffffffffffffffffffffffffffffffff168373ffffffffffffffffffffffffffffffffffffffff161415610a6f576040517f08c379a0000000000000000000000000000000000000000000000000000000008152600401610a6690614022565b60405180910390fd5b8073ffffffffffffffffffffffffffffffffffffffff16610a8e611ec1565b73ffffffffffffffffffffffffffffffffffffffff161480610abd5750610abc81610ab7611ec1565b611c92565b5b610afc576040517f08c379a0000000000000000000000000000000000000000000000000000000008152600401610af390613f62565b60405180910390fd5b610b068383611ec9565b505050565b600281565b6000600d60008373ffffffffffffffffffffffffffffffffffffffff1673ffffffffffffffffffffffffffffffffffffffff16815260200190815260200160002060009054906101000a900460ff169050919050565b6000600980549050905090565b610b84610b7e611ec1565b82611f82565b610bc3576040517f08c379a0000000000000000000000000000000000000000000000000000000008152600401610bba90614082565b60405180910390fd5b610bce838383612017565b505050565b6000610bde836112a7565b8210610c1f576040517f08c379a0000000000000000000000000000000000000000000000000000000008152600401610c1690613dc2565b60405180910390fd5b600760008473ffffffffffffffffffffffffffffffffffffffff1673ffffffffffffffffffffffffffffffffffffffff168152602001908152602001600020600083815260200190815260200160002054905092915050565b600c60019054906101000a900460ff1681565b600c60019054906101000a900460ff16610cda576040517f08c379a0000000000000000000000000000000000000000000000000000000008152600401610cd190613fe2565b60405180910390fd5b600d60003373ffffffffffffffffffffffffffffffffffffffff1673ffffffffffffffffffffffffffffffffffffffff16815260200190815260200160002060009054906101000a900460ff16610d66576040517f08c379a0000000000000000000000000000000000000000000000000000000008152600401610d5d90613ec2565b60405180910390fd5b600a610d8282610d74610b66565b61227e90919063ffffffff16565b1115610dc3576040517f08c379a0000000000000000000000000000000000000000000000000000000008152600401610dba90613d62565b60405180910390fd5b600081118015610dd55750600f548111155b610e14576040517f08c379a0000000000000000000000000000000000000000000000000000000008152600401610e0b90613ee2565b60405180910390fd5b600f54610e6982600e60003373ffffffffffffffffffffffffffffffffffffffff1673ffffffffffffffffffffffffffffffffffffffff1681526020019081526020016000205461227e90919063ffffffff16565b1115610eaa576040517f08c379a0000000000000000000000000000000000000000000000000000000008152600401610ea190613d82565b60405180910390fd5b610ec4816606c00a3912c00061229490919063ffffffff16565b341015610f06576040517f08c379a0000000000000000000000000000000000000000000000000000000008152600401610efd90613da2565b60405180910390fd5b60005b81811015610fef576000610f2e6001610f20610b66565b61227e90919063ffffffff16565b9050600a610f3a610b66565b1015610fdb576001600e60003373ffffffffffffffffffffffffffffffffffffffff1673ffffffffffffffffffffffffffffffffffffffff1681526020019081526020016000206000828254610f9091906141f4565b92505081905550610fa133826122aa565b7f769eff512f395b679667e0062a0e31dad5d22dbc7e6b87f16c3de7e85e6634608133604051610fd29291906140bd565b60405180910390a15b508080610fe790614422565b915050610f09565b5050565b610ffb6122c8565b600061100561168a565b73ffffffffffffffffffffffffffffffffffffffff164760405161102890613c87565b60006040518083038185875af1925050503d8060008114611065576040519150601f19603f3d011682016040523d82523d6000602084013e61106a565b606091505b505090508061107857600080fd5b50565b61109683838360405180602001604052806000815250611b05565b505050565b60006110a5610b66565b82106110e6576040517f08c379a00000000000000000000000000000000000000000000000000000000081526004016110dd90614042565b60405180910390fd5b60098281548110611120577f4e487b7100000000000000000000000000000000000000000000000000000000600052603260045260246000fd5b90600052602060002001549050919050565b600c60029054906101000a900460ff1681565b61114d6122c8565b80600b9080519060200190611163929190613261565b5050565b6000806002600084815260200190815260200160002060009054906101000a900473ffffffffffffffffffffffffffffffffffffffff169050600073ffffffffffffffffffffffffffffffffffffffff168173ffffffffffffffffffffffffffffffffffffffff161415611210576040517f08c379a000000000000000000000000000000000000000000000000000000000815260040161120790614002565b60405180910390fd5b80915050919050565b600b8054611226906143bf565b80601f0160208091040260200160405190810160405280929190818152602001828054611252906143bf565b801561129f5780601f106112745761010080835404028352916020019161129f565b820191906000526020600020905b81548152906001019060200180831161128257829003601f168201915b505050505081565b60008073ffffffffffffffffffffffffffffffffffffffff168273ffffffffffffffffffffffffffffffffffffffff161415611318576040517f08c379a000000000000000000000000000000000000000000000000000000000815260040161130f90613f02565b60405180910390fd5b600360008373ffffffffffffffffffffffffffffffffffffffff1673ffffffffffffffffffffffffffffffffffffffff168152602001908152602001600020549050919050565b6113676122c8565b6113716000612346565b565b61137b6122c8565b60005b828290508110156114fe57600073ffffffffffffffffffffffffffffffffffffffff168383838181106113da577f4e487b7100000000000000000000000000000000000000000000000000000000600052603260045260246000fd5b90506020020160208101906113ef9190613487565b73ffffffffffffffffffffffffffffffffffffffff161415611446576040517f08c379a000000000000000000000000000000000000000000000000000000000815260040161143d90614062565b60405180910390fd5b6001600d6000858585818110611485577f4e487b7100000000000000000000000000000000000000000000000000000000600052603260045260246000fd5b905060200201602081019061149a9190613487565b73ffffffffffffffffffffffffffffffffffffffff1673ffffffffffffffffffffffffffffffffffffffff16815260200190815260200160002060006101000a81548160ff02191690831515021790555080806114f690614422565b91505061137e565b505050565b6606c00a3912c00081565b6060600061151b836112a7565b9050600081141561159e57600067ffffffffffffffff811115611567577f4e487b7100000000000000000000000000000000000000000000000000000000600052604160045260246000fd5b6040519080825280602002602001820160405280156115955781602001602082028036833780820191505090505b50915050611685565b60008167ffffffffffffffff8111156115e0577f4e487b7100000000000000000000000000000000000000000000000000000000600052604160045260246000fd5b60405190808252806020026020018201604052801561160e5781602001602082028036833780820191505090505b50905060005b8281101561167e576116268582610bd3565b82828151811061165f577f4e487b7100000000000000000000000000000000000000000000000000000000600052603260045260246000fd5b602002602001018181525050808061167690614422565b915050611614565b8193505050505b919050565b6000600660009054906101000a900473ffffffffffffffffffffffffffffffffffffffff16905090565b600c60009054906101000a900460ff16611703576040517f08c379a00000000000000000000000000000000000000000000000000000000081526004016116fa90613f22565b60405180910390fd5b600081118015611714575060028111155b611753576040517f08c379a000000000000000000000000000000000000000000000000000000000815260040161174a90613ea2565b60405180910390fd5b600a61176f82611761610b66565b61227e90919063ffffffff16565b11156117b0576040517f08c379a00000000000000000000000000000000000000000000000000000000081526004016117a790613d62565b60405180910390fd5b6117ca816606c00a3912c00061229490919063ffffffff16565b34101561180c576040517f08c379a000000000000000000000000000000000000000000000000000000000815260040161180390613da2565b60405180910390fd5b60005b8181101561189e5760006118346001611826610b66565b61227e90919063ffffffff16565b9050600a611840610b66565b101561188a5761185033826122aa565b7f769eff512f395b679667e0062a0e31dad5d22dbc7e6b87f16c3de7e85e66346081336040516118819291906140bd565b60405180910390a15b50808061189690614422565b91505061180f565b5050565b600f5481565b6060600180546118b7906143bf565b80601f01602080910402602001604051908101604052809291908181526020018280546118e3906143bf565b80156119305780601f1061190557610100808354040283529160200191611930565b820191906000526020600020905b81548152906001019060200180831161191357829003601f168201915b5050505050905090565b61194c611945611ec1565b838361240c565b5050565b6119586122c8565b6001600c60026101000a81548160ff021916908315150217905550565b61197d6122c8565b60005b82829050811015611b0057600073ffffffffffffffffffffffffffffffffffffffff168383838181106119dc577f4e487b7100000000000000000000000000000000000000000000000000000000600052603260045260246000fd5b90506020020160208101906119f19190613487565b73ffffffffffffffffffffffffffffffffffffffff161415611a48576040517f08c379a0000000000000000000000000000000000000000000000000000000008152600401611a3f90613fc2565b60405180910390fd5b6000600d6000858585818110611a87577f4e487b7100000000000000000000000000000000000000000000000000000000600052603260045260246000fd5b9050602002016020810190611a9c9190613487565b73ffffffffffffffffffffffffffffffffffffffff1673ffffffffffffffffffffffffffffffffffffffff16815260200190815260200160002060006101000a81548160ff0219169083151502179055508080611af890614422565b915050611980565b505050565b611b16611b10611ec1565b83611f82565b611b55576040517f08c379a0000000000000000000000000000000000000000000000000000000008152600401611b4c90614082565b60405180910390fd5b611b6184848484612579565b50505050565b6060611b72826125d5565b611bb1576040517f08c379a0000000000000000000000000000000000000000000000000000000008152600401611ba890613f42565b60405180910390fd5b6000611bbb612641565b905060001515600c60029054906101000a900460ff1615151415611bfa57604051806080016040528060418152602001614c7c60419139915050611c47565b6000815111611c185760405180602001604052806000815250611c43565b80611c22846126d3565b604051602001611c33929190613c58565b6040516020818303038152906040525b9150505b919050565b611c546122c8565b600c60009054906101000a900460ff1615600c60006101000a81548160ff021916908315150217905550565b611c886122c8565b80600f8190555050565b6000600560008473ffffffffffffffffffffffffffffffffffffffff1673ffffffffffffffffffffffffffffffffffffffff16815260200190815260200160002060008373ffffffffffffffffffffffffffffffffffffffff1673ffffffffffffffffffffffffffffffffffffffff16815260200190815260200160002060009054906101000a900460ff16905092915050565b600c60009054906101000a900460ff1681565b611d416122c8565b600c60019054906101000a900460ff1615600c60016101000a81548160ff021916908315150217905550565b611d756122c8565b600073ffffffffffffffffffffffffffffffffffffffff168173ffffffffffffffffffffffffffffffffffffffff161415611de5576040517f08c379a0000000000000000000000000000000000000000000000000000000008152600401611ddc90613e02565b60405180910390fd5b611dee81612346565b50565b600a81565b60105481565b60007f780e9d63000000000000000000000000000000000000000000000000000000007bffffffffffffffffffffffffffffffffffffffffffffffffffffffff1916827bffffffffffffffffffffffffffffffffffffffffffffffffffffffff19161480611e6f5750611e6e82612880565b5b9050919050565b611e7f816125d5565b611ebe576040517f08c379a0000000000000000000000000000000000000000000000000000000008152600401611eb590614002565b60405180910390fd5b50565b600033905090565b816004600083815260200190815260200160002060006101000a81548173ffffffffffffffffffffffffffffffffffffffff021916908373ffffffffffffffffffffffffffffffffffffffff160217905550808273ffffffffffffffffffffffffffffffffffffffff16611f3c83611167565b73ffffffffffffffffffffffffffffffffffffffff167f8c5be1e5ebec7d5bd14f71427d1e84f3dd0314c0f7b2291e5b200ac8c7c3b92560405160405180910390a45050565b600080611f8e83611167565b90508073ffffffffffffffffffffffffffffffffffffffff168473ffffffffffffffffffffffffffffffffffffffff161480611fd05750611fcf8185611c92565b5b8061200e57508373ffffffffffffffffffffffffffffffffffffffff16611ff6846109ad565b73ffffffffffffffffffffffffffffffffffffffff16145b91505092915050565b8273ffffffffffffffffffffffffffffffffffffffff1661203782611167565b73ffffffffffffffffffffffffffffffffffffffff161461208d576040517f08c379a000000000000000000000000000000000000000000000000000000000815260040161208490613e22565b60405180910390fd5b600073ffffffffffffffffffffffffffffffffffffffff168273ffffffffffffffffffffffffffffffffffffffff1614156120fd576040517f08c379a00000000000000000000000000000000000000000000000000000000081526004016120f490613e62565b60405180910390fd5b612108838383612962565b612113600082611ec9565b6001600360008573ffffffffffffffffffffffffffffffffffffffff1673ffffffffffffffffffffffffffffffffffffffff168152602001908152602001600020600082825461216391906142d5565b925050819055506001600360008473ffffffffffffffffffffffffffffffffffffffff1673ffffffffffffffffffffffffffffffffffffffff16815260200190815260200160002060008282546121ba91906141f4565b92505081905550816002600083815260200190815260200160002060006101000a81548173ffffffffffffffffffffffffffffffffffffffff021916908373ffffffffffffffffffffffffffffffffffffffff160217905550808273ffffffffffffffffffffffffffffffffffffffff168473ffffffffffffffffffffffffffffffffffffffff167fddf252ad1be2c89b69c2b068fc378daa952ba7f163c4a11628f55a4df523b3ef60405160405180910390a4612279838383612972565b505050565b6000818361228c91906141f4565b905092915050565b600081836122a2919061427b565b905092915050565b6122c4828260405180602001604052806000815250612977565b5050565b6122d0611ec1565b73ffffffffffffffffffffffffffffffffffffffff166122ee61168a565b73ffffffffffffffffffffffffffffffffffffffff1614612344576040517f08c379a000000000000000000000000000000000000000000000000000000000815260040161233b90613fa2565b60405180910390fd5b565b6000600660009054906101000a900473ffffffffffffffffffffffffffffffffffffffff16905081600660006101000a81548173ffffffffffffffffffffffffffffffffffffffff021916908373ffffffffffffffffffffffffffffffffffffffff1602179055508173ffffffffffffffffffffffffffffffffffffffff168173ffffffffffffffffffffffffffffffffffffffff167f8be0079c531659141344cd1fd0a4f28419497f9722a3daafe3b4186f6b6457e060405160405180910390a35050565b8173ffffffffffffffffffffffffffffffffffffffff168373ffffffffffffffffffffffffffffffffffffffff16141561247b576040517f08c379a000000000000000000000000000000000000000000000000000000000815260040161247290613e82565b60405180910390fd5b80600560008573ffffffffffffffffffffffffffffffffffffffff1673ffffffffffffffffffffffffffffffffffffffff16815260200190815260200160002060008473ffffffffffffffffffffffffffffffffffffffff1673ffffffffffffffffffffffffffffffffffffffff16815260200190815260200160002060006101000a81548160ff0219169083151502179055508173ffffffffffffffffffffffffffffffffffffffff168373ffffffffffffffffffffffffffffffffffffffff167f17307eab39ab6107e8899845ad3d59bd9653f200f220920489ca2b5937696c318360405161256c9190613d25565b60405180910390a3505050565b612584848484612017565b612590848484846129d2565b6125cf576040517f08c379a00000000000000000000000000000000000000000000000000000000081526004016125c690613de2565b60405180910390fd5b50505050565b60008073ffffffffffffffffffffffffffffffffffffffff166002600084815260200190815260200160002060009054906101000a900473ffffffffffffffffffffffffffffffffffffffff1673ffffffffffffffffffffffffffffffffffffffff1614159050919050565b6060600b8054612650906143bf565b80601f016020809104026020016040519081016040528092919081815260200182805461267c906143bf565b80156126c95780601f1061269e576101008083540402835291602001916126c9565b820191906000526020600020905b8154815290600101906020018083116126ac57829003601f168201915b5050505050905090565b6060600082141561271b576040518060400160405280600181526020017f3000000000000000000000000000000000000000000000000000000000000000815250905061287b565b600082905060005b6000821461274d57808061273690614422565b915050600a82612746919061424a565b9150612723565b60008167ffffffffffffffff81111561278f577f4e487b7100000000000000000000000000000000000000000000000000000000600052604160045260246000fd5b6040519080825280601f01601f1916602001820160405280156127c15781602001600182028036833780820191505090505b5090505b60008514612874576001826127da91906142d5565b9150600a856127e9919061446b565b60306127f591906141f4565b60f81b818381518110612831577f4e487b7100000000000000000000000000000000000000000000000000000000600052603260045260246000fd5b60200101907effffffffffffffffffffffffffffffffffffffffffffffffffffffffffffff1916908160001a905350600a8561286d919061424a565b94506127c5565b8093505050505b919050565b60007f80ac58cd000000000000000000000000000000000000000000000000000000007bffffffffffffffffffffffffffffffffffffffffffffffffffffffff1916827bffffffffffffffffffffffffffffffffffffffffffffffffffffffff1916148061294b57507f5b5e139f000000000000000000000000000000000000000000000000000000007bffffffffffffffffffffffffffffffffffffffffffffffffffffffff1916827bffffffffffffffffffffffffffffffffffffffffffffffffffffffff1916145b8061295b575061295a82612b69565b5b9050919050565b61296d838383612bd3565b505050565b505050565b6129818383612ce7565b61298e60008484846129d2565b6129cd576040517f08c379a00000000000000000000000000000000000000000000000000000000081526004016129c490613de2565b60405180910390fd5b505050565b60006129f38473ffffffffffffffffffffffffffffffffffffffff16612ec1565b15612b5c578373ffffffffffffffffffffffffffffffffffffffff1663150b7a02612a1c611ec1565b8786866040518563ffffffff1660e01b8152600401612a3e9493929190613cb7565b602060405180830381600087803b158015612a5857600080fd5b505af1925050508015612a8957506040513d601f19601f82011682018060405250810190612a86919061369c565b60015b612b0c573d8060008114612ab9576040519150601f19603f3d011682016040523d82523d6000602084013e612abe565b606091505b50600081511415612b04576040517f08c379a0000000000000000000000000000000000000000000000000000000008152600401612afb90613de2565b60405180910390fd5b805181602001fd5b63150b7a0260e01b7bffffffffffffffffffffffffffffffffffffffffffffffffffffffff1916817bffffffffffffffffffffffffffffffffffffffffffffffffffffffff191614915050612b61565b600190505b949350505050565b60007f01ffc9a7000000000000000000000000000000000000000000000000000000007bffffffffffffffffffffffffffffffffffffffffffffffffffffffff1916827bffffffffffffffffffffffffffffffffffffffffffffffffffffffff1916149050919050565b612bde838383612ee4565b600073ffffffffffffffffffffffffffffffffffffffff168373ffffffffffffffffffffffffffffffffffffffff161415612c2157612c1c81612ee9565b612c60565b8173ffffffffffffffffffffffffffffffffffffffff168373ffffffffffffffffffffffffffffffffffffffff1614612c5f57612c5e8382612f32565b5b5b600073ffffffffffffffffffffffffffffffffffffffff168273ffffffffffffffffffffffffffffffffffffffff161415612ca357612c9e8161309f565b612ce2565b8273ffffffffffffffffffffffffffffffffffffffff168273ffffffffffffffffffffffffffffffffffffffff1614612ce157612ce082826131e2565b5b5b505050565b600073ffffffffffffffffffffffffffffffffffffffff168273ffffffffffffffffffffffffffffffffffffffff161415612d57576040517f08c379a0000000000000000000000000000000000000000000000000000000008152600401612d4e90613f82565b60405180910390fd5b612d60816125d5565b15612da0576040517f08c379a0000000000000000000000000000000000000000000000000000000008152600401612d9790613e42565b60405180910390fd5b612dac60008383612962565b6001600360008473ffffffffffffffffffffffffffffffffffffffff1673ffffffffffffffffffffffffffffffffffffffff1681526020019081526020016000206000828254612dfc91906141f4565b92505081905550816002600083815260200190815260200160002060006101000a81548173ffffffffffffffffffffffffffffffffffffffff021916908373ffffffffffffffffffffffffffffffffffffffff160217905550808273ffffffffffffffffffffffffffffffffffffffff16600073ffffffffffffffffffffffffffffffffffffffff167fddf252ad1be2c89b69c2b068fc378daa952ba7f163c4a11628f55a4df523b3ef60405160405180910390a4612ebd60008383612972565b5050565b6000808273ffffffffffffffffffffffffffffffffffffffff163b119050919050565b505050565b600980549050600a600083815260200190815260200160002081905550600981908060018154018082558091505060019003906000526020600020016000909190919091505550565b60006001612f3f846112a7565b612f4991906142d5565b905060006008600084815260200190815260200160002054905081811461302e576000600760008673ffffffffffffffffffffffffffffffffffffffff1673ffffffffffffffffffffffffffffffffffffffff168152602001908152602001600020600084815260200190815260200160002054905080600760008773ffffffffffffffffffffffffffffffffffffffff1673ffffffffffffffffffffffffffffffffffffffff168152602001908152602001600020600084815260200190815260200160002081905550816008600083815260200190815260200160002081905550505b6008600084815260200190815260200160002060009055600760008573ffffffffffffffffffffffffffffffffffffffff1673ffffffffffffffffffffffffffffffffffffffff16815260200190815260200160002060008381526020019081526020016000206000905550505050565b600060016009805490506130b391906142d5565b90506000600a6000848152602001908152602001600020549050600060098381548110613109577f4e487b7100000000000000000000000000000000000000000000000000000000600052603260045260246000fd5b906000526020600020015490508060098381548110613151577f4e487b7100000000000000000000000000000000000000000000000000000000600052603260045260246000fd5b906000526020600020018190555081600a600083815260200190815260200160002081905550600a60008581526020019081526020016000206000905560098054806131c6577f4e487b7100000000000000000000000000000000000000000000000000000000600052603160045260246000fd5b6001900381819060005260206000200160009055905550505050565b60006131ed836112a7565b905081600760008573ffffffffffffffffffffffffffffffffffffffff1673ffffffffffffffffffffffffffffffffffffffff168152602001908152602001600020600083815260200190815260200160002081905550806008600084815260200190815260200160002081905550505050565b82805461326d906143bf565b90600052602060002090601f01602090048101928261328f57600085556132d6565b82601f106132a857805160ff19168380011785556132d6565b828001600101855582156132d6579182015b828111156132d55782518255916020019190600101906132ba565b5b5090506132e391906132e7565b5090565b5b808211156133005760008160009055506001016132e8565b5090565b60006133176133128461410b565b6140e6565b90508281526020810184848401111561332f57600080fd5b61333a84828561437d565b509392505050565b60006133556133508461413c565b6140e6565b90508281526020810184848401111561336d57600080fd5b61337884828561437d565b509392505050565b60008135905061338f81614c1f565b92915050565b60008083601f8401126133a757600080fd5b8235905067ffffffffffffffff8111156133c057600080fd5b6020830191508360208202830111156133d857600080fd5b9250929050565b6000813590506133ee81614c36565b92915050565b60008135905061340381614c4d565b92915050565b60008151905061341881614c4d565b92915050565b600082601f83011261342f57600080fd5b813561343f848260208601613304565b91505092915050565b600082601f83011261345957600080fd5b8135613469848260208601613342565b91505092915050565b60008135905061348181614c64565b92915050565b60006020828403121561349957600080fd5b60006134a784828501613380565b91505092915050565b600080604083850312156134c357600080fd5b60006134d185828601613380565b92505060206134e285828601613380565b9150509250929050565b60008060006060848603121561350157600080fd5b600061350f86828701613380565b935050602061352086828701613380565b925050604061353186828701613472565b9150509250925092565b6000806000806080858703121561355157600080fd5b600061355f87828801613380565b945050602061357087828801613380565b935050604061358187828801613472565b925050606085013567ffffffffffffffff81111561359e57600080fd5b6135aa8782880161341e565b91505092959194509250565b600080604083850312156135c957600080fd5b60006135d785828601613380565b92505060206135e8858286016133df565b9150509250929050565b6000806040838503121561360557600080fd5b600061361385828601613380565b925050602061362485828601613472565b9150509250929050565b6000806020838503121561364157600080fd5b600083013567ffffffffffffffff81111561365b57600080fd5b61366785828601613395565b92509250509250929050565b60006020828403121561368557600080fd5b6000613693848285016133f4565b91505092915050565b6000602082840312156136ae57600080fd5b60006136bc84828501613409565b91505092915050565b6000602082840312156136d757600080fd5b600082013567ffffffffffffffff8111156136f157600080fd5b6136fd84828501613448565b91505092915050565b60006020828403121561371857600080fd5b600061372684828501613472565b91505092915050565b600061373b8383613c3a565b60208301905092915050565b61375081614309565b82525050565b60006137618261417d565b61376b81856141ab565b93506137768361416d565b8060005b838110156137a757815161378e888261372f565b97506137998361419e565b92505060018101905061377a565b5085935050505092915050565b6137bd8161431b565b82525050565b60006137ce82614188565b6137d881856141bc565b93506137e881856020860161438c565b6137f181614558565b840191505092915050565b600061380782614193565b61381181856141d8565b935061382181856020860161438c565b61382a81614558565b840191505092915050565b600061384082614193565b61384a81856141e9565b935061385a81856020860161438c565b80840191505092915050565b60006138736023836141d8565b915061387e82614569565b604082019050919050565b60006138966028836141d8565b91506138a1826145b8565b604082019050919050565b60006138b96025836141d8565b91506138c482614607565b604082019050919050565b60006138dc602b836141d8565b91506138e782614656565b604082019050919050565b60006138ff6032836141d8565b915061390a826146a5565b604082019050919050565b60006139226026836141d8565b915061392d826146f4565b604082019050919050565b60006139456025836141d8565b915061395082614743565b604082019050919050565b6000613968601c836141d8565b915061397382614792565b602082019050919050565b600061398b6024836141d8565b9150613996826147bb565b604082019050919050565b60006139ae6019836141d8565b91506139b98261480a565b602082019050919050565b60006139d16038836141d8565b91506139dc82614833565b604082019050919050565b60006139f4601c836141d8565b91506139ff82614882565b602082019050919050565b6000613a176024836141d8565b9150613a22826148ab565b604082019050919050565b6000613a3a6029836141d8565b9150613a45826148fa565b604082019050919050565b6000613a5d6018836141d8565b9150613a6882614949565b602082019050919050565b6000613a806023836141d8565b9150613a8b82614972565b604082019050919050565b6000613aa3603e836141d8565b9150613aae826149c1565b604082019050919050565b6000613ac66020836141d8565b9150613ad182614a10565b602082019050919050565b6000613ae96005836141e9565b9150613af482614a39565b600582019050919050565b6000613b0c6020836141d8565b9150613b1782614a62565b602082019050919050565b6000613b2f601a836141d8565b9150613b3a82614a8b565b602082019050919050565b6000613b526014836141d8565b9150613b5d82614ab4565b602082019050919050565b6000613b756018836141d8565b9150613b8082614add565b602082019050919050565b6000613b986021836141d8565b9150613ba382614b06565b604082019050919050565b6000613bbb6000836141cd565b9150613bc682614b55565b600082019050919050565b6000613bde602c836141d8565b9150613be982614b58565b604082019050919050565b6000613c016019836141d8565b9150613c0c82614ba7565b602082019050919050565b6000613c24602e836141d8565b9150613c2f82614bd0565b604082019050919050565b613c4381614373565b82525050565b613c5281614373565b82525050565b6000613c648285613835565b9150613c708284613835565b9150613c7b82613adc565b91508190509392505050565b6000613c9282613bae565b9150819050919050565b6000602082019050613cb16000830184613747565b92915050565b6000608082019050613ccc6000830187613747565b613cd96020830186613747565b613ce66040830185613c49565b8181036060830152613cf881846137c3565b905095945050505050565b60006020820190508181036000830152613d1d8184613756565b905092915050565b6000602082019050613d3a60008301846137b4565b92915050565b60006020820190508181036000830152613d5a81846137fc565b905092915050565b60006020820190508181036000830152613d7b81613866565b9050919050565b60006020820190508181036000830152613d9b81613889565b9050919050565b60006020820190508181036000830152613dbb816138ac565b9050919050565b60006020820190508181036000830152613ddb816138cf565b9050919050565b60006020820190508181036000830152613dfb816138f2565b9050919050565b60006020820190508181036000830152613e1b81613915565b9050919050565b60006020820190508181036000830152613e3b81613938565b9050919050565b60006020820190508181036000830152613e5b8161395b565b9050919050565b60006020820190508181036000830152613e7b8161397e565b9050919050565b60006020820190508181036000830152613e9b816139a1565b9050919050565b60006020820190508181036000830152613ebb816139c4565b9050919050565b60006020820190508181036000830152613edb816139e7565b9050919050565b60006020820190508181036000830152613efb81613a0a565b9050919050565b60006020820190508181036000830152613f1b81613a2d565b9050919050565b60006020820190508181036000830152613f3b81613a50565b9050919050565b60006020820190508181036000830152613f5b81613a73565b9050919050565b60006020820190508181036000830152613f7b81613a96565b9050919050565b60006020820190508181036000830152613f9b81613ab9565b9050919050565b60006020820190508181036000830152613fbb81613aff565b9050919050565b60006020820190508181036000830152613fdb81613b22565b9050919050565b60006020820190508181036000830152613ffb81613b45565b9050919050565b6000602082019050818103600083015261401b81613b68565b9050919050565b6000602082019050818103600083015261403b81613b8b565b9050919050565b6000602082019050818103600083015261405b81613bd1565b9050919050565b6000602082019050818103600083015261407b81613bf4565b9050919050565b6000602082019050818103600083015261409b81613c17565b9050919050565b60006020820190506140b76000830184613c49565b92915050565b60006040820190506140d26000830185613c49565b6140df6020830184613747565b9392505050565b60006140f0614101565b90506140fc82826143f1565b919050565b6000604051905090565b600067ffffffffffffffff82111561412657614125614529565b5b61412f82614558565b9050602081019050919050565b600067ffffffffffffffff82111561415757614156614529565b5b61416082614558565b9050602081019050919050565b6000819050602082019050919050565b600081519050919050565b600081519050919050565b600081519050919050565b6000602082019050919050565b600082825260208201905092915050565b600082825260208201905092915050565b600081905092915050565b600082825260208201905092915050565b600081905092915050565b60006141ff82614373565b915061420a83614373565b9250827fffffffffffffffffffffffffffffffffffffffffffffffffffffffffffffffff0382111561423f5761423e61449c565b5b828201905092915050565b600061425582614373565b915061426083614373565b9250826142705761426f6144cb565b5b828204905092915050565b600061428682614373565b915061429183614373565b9250817fffffffffffffffffffffffffffffffffffffffffffffffffffffffffffffffff04831182151516156142ca576142c961449c565b5b828202905092915050565b60006142e082614373565b91506142eb83614373565b9250828210156142fe576142fd61449c565b5b828203905092915050565b600061431482614353565b9050919050565b60008115159050919050565b60007fffffffff0000000000000000000000000000000000000000000000000000000082169050919050565b600073ffffffffffffffffffffffffffffffffffffffff82169050919050565b6000819050919050565b82818337600083830152505050565b60005b838110156143aa57808201518184015260208101905061438f565b838111156143b9576000848401525b50505050565b600060028204905060018216806143d757607f821691505b602082108114156143eb576143ea6144fa565b5b50919050565b6143fa82614558565b810181811067ffffffffffffffff8211171561441957614418614529565b5b80604052505050565b600061442d82614373565b91507fffffffffffffffffffffffffffffffffffffffffffffffffffffffffffffffff8214156144605761445f61449c565b5b600182019050919050565b600061447682614373565b915061448183614373565b925082614491576144906144cb565b5b828206905092915050565b7f4e487b7100000000000000000000000000000000000000000000000000000000600052601160045260246000fd5b7f4e487b7100000000000000000000000000000000000000000000000000000000600052601260045260246000fd5b7f4e487b7100000000000000000000000000000000000000000000000000000000600052602260045260246000fd5b7f4e487b7100000000000000000000000000000000000000000000000000000000600052604160045260246000fd5b6000601f19601f8301169050919050565b7f4d696e742073617969736920746f706c616d2061727a692061736d616b74616460008201527f6972210000000000000000000000000000000000000000000000000000000000602082015250565b7f4d696e746c656d6520697a6e6920766572696c656e204e46542073617969736960008201527f206173696c646921000000000000000000000000000000000000000000000000602082015250565b7f476f6e646572696c656e204554482064656765726920646f677275206465676960008201527f6c64697221000000000000000000000000000000000000000000000000000000602082015250565b7f455243373231456e756d657261626c653a206f776e657220696e646578206f7560008201527f74206f6620626f756e6473000000000000000000000000000000000000000000602082015250565b7f4552433732313a207472616e7366657220746f206e6f6e20455243373231526560008201527f63656976657220696d706c656d656e7465720000000000000000000000000000602082015250565b7f4f776e61626c653a206e6577206f776e657220697320746865207a65726f206160008201527f6464726573730000000000000000000000000000000000000000000000000000602082015250565b7f4552433732313a207472616e736665722066726f6d20696e636f72726563742060008201527f6f776e6572000000000000000000000000000000000000000000000000000000602082015250565b7f4552433732313a20746f6b656e20616c7265616479206d696e74656400000000600082015250565b7f4552433732313a207472616e7366657220746f20746865207a65726f2061646460008201527f7265737300000000000000000000000000000000000000000000000000000000602082015250565b7f4552433732313a20617070726f766520746f2063616c6c657200000000000000600082015250565b7f42697220736566657264652079616c6e697a636120626972207665796120646160008201527f68612066617a6c61206a65746f6e206261736162696c69720000000000000000602082015250565b7f4f6e7361746973206c6973746573696e646520796f6b73756e757a2100000000600082015250565b7f4275206b616461722066617a6c61204e4654206d696e746c6579656d657a736960008201527f6e697a2100000000000000000000000000000000000000000000000000000000602082015250565b7f4552433732313a2061646472657373207a65726f206973206e6f74206120766160008201527f6c6964206f776e65720000000000000000000000000000000000000000000000602082015250565b7f48656e757a20736174697320616b74696620646567696c210000000000000000600082015250565b7f4552433732314d657461646174613a20426f796c6562697220746f6b656e207960008201527f6f6b210000000000000000000000000000000000000000000000000000000000602082015250565b7f4552433732313a20617070726f76652063616c6c6572206973206e6f7420746f60008201527f6b656e206f776e6572206e6f7220617070726f76656420666f7220616c6c0000602082015250565b7f4552433732313a206d696e7420746f20746865207a65726f2061646472657373600082015250565b7f2e6a736f6e000000000000000000000000000000000000000000000000000000600082015250565b7f4f776e61626c653a2063616c6c6572206973206e6f7420746865206f776e6572600082015250565b7f43616e27742061646420746865206e756c6c2061646472657373000000000000600082015250565b7f4f6e736174697320616b74696620646567696c21000000000000000000000000600082015250565b7f4552433732313a20696e76616c696420746f6b656e2049440000000000000000600082015250565b7f4552433732313a20617070726f76616c20746f2063757272656e74206f776e6560008201527f7200000000000000000000000000000000000000000000000000000000000000602082015250565b50565b7f455243373231456e756d657261626c653a20676c6f62616c20696e646578206f60008201527f7574206f6620626f756e64730000000000000000000000000000000000000000602082015250565b7f426f7320616472657320656b6c6579656d657a73696e697a2100000000000000600082015250565b7f4552433732313a2063616c6c6572206973206e6f7420746f6b656e206f776e6560008201527f72206e6f7220617070726f766564000000000000000000000000000000000000602082015250565b614c2881614309565b8114614c3357600080fd5b50565b614c3f8161431b565b8114614c4a57600080fd5b50565b614c5681614327565b8114614c6157600080fd5b50565b614c6d81614373565b8114614c7857600080fd5b5056fe697066733a2f2f516d6531737648415158756a6d586268366336534d3133416f584b466f6757557747515832633932646d6a3161522f68696464656e2e6a736f6ea2646970667358221220a7445378b2ad698fa225251ad78a5e54ab1f3d8991447a65f2af39205ee6dd1864736f6c63430008040033",
  "linkReferences": {},
  "deployedLinkReferences": {}
}